:100000000C9434000C943E000C943E000C943E0082
:100010000C943E000C943E000C943E000C943E0068
:100020000C943E000C943E000C943E000C943E0058
:100030000C943E000C943E000C943E000C943E0048
:100040000C943E000C943E000C943E000C943E0038
:100050000C943E000C943E000C943E000C943E0028
:100060000C943E000C943E0011241FBECFEFD8E04C
:10007000DEBFCDBF0E946B000C94F6000C94000014
:1000800080E480937C0087E880937A0008959091C3
:100090007C00987F90937C0090917C008770892BE6
:1000A00080937C0080917A00806480937A008091B4
:1000B0007A0084FFFCCF80917A00806180937A007F
:1000C0002091780030917900C901089550983898AE
:1000D000569A219A089584B5836884BD85B5816058
:1000E00085BD0E94660080E480937C0087E8809351
:1000F0007A0015B840E951E062EF72EBE5E6F3E310
:1001000004C01092790010927800489BFACF299A87
:1001100080917C00887F80937C0080917C0080931C
:100120007C0080917A00806480937A0080917A00CC
:1001300084FFFCCF80917A00806180937A00809167
:100140007800909179008091780090917900892BC6
:10015000A1F08091780090917900883C910568F435
:10016000F7BD20E030E0CA010197F1F72F5F3F4F64
:1001700087E0203D3807B9F7C6CF8091780090918D
:100180007900833D910558F0809178009091790035
:10019000845F914020F4E7BD20E030E0E4CF80911F
:1001A0007800909179008F5F914058F080917800AD
:1001B000909179008C5B924020F477BD20E030E094
:1001C000D2CF8091780090917900875C924058F06E
:1001D00080917800909179008050944020F467BD20
:1001E00020E030E0C0CF20E030E0BDCFF894FFCF7A
:00000001FF
